{
  "contractName": "Suggestion",
  "abi": [
    {
      "constant": false,
      "inputs": [],
      "name": "renounceOwnership",
      "outputs": [],
      "payable": false,
      "stateMutability": "nonpayable",
      "type": "function"
    },
    {
      "constant": true,
      "inputs": [],
      "name": "owner",
      "outputs": [
        {
          "name": "",
          "type": "address"
        }
      ],
      "payable": false,
      "stateMutability": "view",
      "type": "function"
    },
    {
      "constant": true,
      "inputs": [],
      "name": "isOwner",
      "outputs": [
        {
          "name": "",
          "type": "bool"
        }
      ],
      "payable": false,
      "stateMutability": "view",
      "type": "function"
    },
    {
      "constant": true,
      "inputs": [],
      "name": "suggestion",
      "outputs": [
        {
          "name": "",
          "type": "string"
        }
      ],
      "payable": false,
      "stateMutability": "view",
      "type": "function"
    },
    {
      "constant": true,
      "inputs": [],
      "name": "voteCount",
      "outputs": [
        {
          "name": "",
          "type": "int256"
        }
      ],
      "payable": false,
      "stateMutability": "view",
      "type": "function"
    },
    {
      "constant": false,
      "inputs": [
        {
          "name": "newOwner",
          "type": "address"
        }
      ],
      "name": "transferOwnership",
      "outputs": [],
      "payable": false,
      "stateMutability": "nonpayable",
      "type": "function"
    },
    {
      "inputs": [
        {
          "name": "_suggestion",
          "type": "string"
        }
      ],
      "payable": false,
      "stateMutability": "nonpayable",
      "type": "constructor"
    },
    {
      "anonymous": false,
      "inputs": [
        {
          "indexed": true,
          "name": "previousOwner",
          "type": "address"
        },
        {
          "indexed": true,
          "name": "newOwner",
          "type": "address"
        }
      ],
      "name": "OwnershipTransferred",
      "type": "event"
    },
    {
      "constant": false,
      "inputs": [],
      "name": "upVote",
      "outputs": [],
      "payable": true,
      "stateMutability": "payable",
      "type": "function"
    },
    {
      "constant": false,
      "inputs": [],
      "name": "downVote",
      "outputs": [],
      "payable": false,
      "stateMutability": "nonpayable",
      "type": "function"
    },
    {
      "constant": true,
      "inputs": [],
      "name": "donationValue",
      "outputs": [
        {
          "name": "",
          "type": "uint256"
        }
      ],
      "payable": false,
      "stateMutability": "view",
      "type": "function"
    },
    {
      "constant": false,
      "inputs": [],
      "name": "close",
      "outputs": [],
      "payable": false,
      "stateMutability": "nonpayable",
      "type": "function"
    }
  ],
  "bytecode": "0x608060405234801561001057600080fd5b50604051610b27380380610b278339810180604052602081101561003357600080fd5b81019080805164010000000081111561004b57600080fd5b8281019050602081018481111561006157600080fd5b815185600182028301116401000000008211171561007e57600080fd5b5050929190505050336000806101000a81548173ffffffffffffffffffffffffffffffffffffffff021916908373ffffffffffffffffffffffffffffffffffffffff1602179055506000809054906101000a900473ffffffffffffffffffffffffffffffffffffffff1673ffffffffffffffffffffffffffffffffffffffff16600073ffffffffffffffffffffffffffffffffffffffff167f8be0079c531659141344cd1fd0a4f28419497f9722a3daafe3b4186f6b6457e060405160405180910390a3806001908051906020019061015892919061015f565b5050610204565b828054600181600116156101000203166002900490600052602060002090601f016020900481019282601f106101a057805160ff19168380011785556101ce565b828001600101855582156101ce579182015b828111156101cd5782518255916020019190600101906101b2565b5b5090506101db91906101df565b5090565b61020191905b808211156101fd5760008160009055506001016101e5565b5090565b90565b610914806102136000396000f3fe6080604052600436106100915760003560e01c80638f32d59b116100595780638f32d59b1461015d578063bb3bb2921461018c578063c63840711461021c578063eed7c12814610247578063f2fde38b1461025157610091565b80632ed606e51461009657806343d726d6146100ad578063715018a6146100c45780637c9cec57146100db5780638da5cb5b14610106575b600080fd5b3480156100a257600080fd5b506100ab6102a2565b005b3480156100b957600080fd5b506100c261031c565b005b3480156100d057600080fd5b506100d96103af565b005b3480156100e757600080fd5b506100f06104e8565b6040518082815260200191505060405180910390f35b34801561011257600080fd5b5061011b610507565b604051808273ffffffffffffffffffffffffffffffffffffffff1673ffffffffffffffffffffffffffffffffffffffff16815260200191505060405180910390f35b34801561016957600080fd5b50610172610530565b604051808215151515815260200191505060405180910390f35b34801561019857600080fd5b506101a1610587565b6040518080602001828103825283818151815260200191508051906020019080838360005b838110156101e15780820151818401526020810190506101c6565b50505050905090810190601f16801561020e5780820380516001836020036101000a031916815260200191505b509250505060405180910390f35b34801561022857600080fd5b50610231610625565b6040518082815260200191505060405180910390f35b61024f61062b565b005b34801561025d57600080fd5b506102a06004803603602081101561027457600080fd5b81019080803573ffffffffffffffffffffffffffffffffffffffff1690602001909291905050506106a4565b005b6102aa61072a565b61031a576001600360003373ffffffffffffffffffffffffffffffffffffffff1673ffffffffffffffffffffffffffffffffffffffff16815260200190815260200160002060006101000a81548160ff021916908315150217905550600260008154809291906001900391905055505b565b610324610530565b610396576040517f08c379a00000000000000000000000000000000000000000000000000000000081526004018080602001828103825260208152602001807f4f776e61626c653a2063616c6c6572206973206e6f7420746865206f776e657281525060200191505060405180910390fd5b3373ffffffffffffffffffffffffffffffffffffffff16ff5b6103b7610530565b610429576040517f08c379a00000000000000000000000000000000000000000000000000000000081526004018080602001828103825260208152602001807f4f776e61626c653a2063616c6c6572206973206e6f7420746865206f776e657281525060200191505060405180910390fd5b600073ffffffffffffffffffffffffffffffffffffffff166000809054906101000a900473ffffffffffffffffffffffffffffffffffffffff1673ffffffffffffffffffffffffffffffffffffffff167f8be0079c531659141344cd1fd0a4f28419497f9722a3daafe3b4186f6b6457e060405160405180910390a360008060006101000a81548173ffffffffffffffffffffffffffffffffffffffff021916908373ffffffffffffffffffffffffffffffffffffffff160217905550565b60003073ffffffffffffffffffffffffffffffffffffffff1631905090565b60008060009054906101000a900473ffffffffffffffffffffffffffffffffffffffff16905090565b60008060009054906101000a900473ffffffffffffffffffffffffffffffffffffffff1673ffffffffffffffffffffffffffffffffffffffff163373ffffffffffffffffffffffffffffffffffffffff1614905090565b60018054600181600116156101000203166002900480601f01602080910402602001604051908101604052809291908181526020018280546001816001161561010002031660029004801561061d5780601f106105f25761010080835404028352916020019161061d565b820191906000526020600020905b81548152906001019060200180831161060057829003601f168201915b505050505081565b60025481565b61063361072a565b6106a2576001600360003373ffffffffffffffffffffffffffffffffffffffff1673ffffffffffffffffffffffffffffffffffffffff16815260200190815260200160002060006101000a81548160ff0219169083151502179055506002600081548092919060010191905055505b565b6106ac610530565b61071e576040517f08c379a00000000000000000000000000000000000000000000000000000000081526004018080602001828103825260208152602001807f4f776e61626c653a2063616c6c6572206973206e6f7420746865206f776e657281525060200191505060405180910390fd5b6107278161077e565b50565b6000600360003373ffffffffffffffffffffffffffffffffffffffff1673ffffffffffffffffffffffffffffffffffffffff16815260200190815260200160002060009054906101000a900460ff16905090565b600073ffffffffffffffffffffffffffffffffffffffff168173ffffffffffffffffffffffffffffffffffffffff161415610804576040517f08c379a00000000000000000000000000000000000000000000000000000000081526004018080602001828103825260268152602001806108c36026913960400191505060405180910390fd5b8073ffffffffffffffffffffffffffffffffffffffff166000809054906101000a900473ffffffffffffffffffffffffffffffffffffffff1673ffffffffffffffffffffffffffffffffffffffff167f8be0079c531659141344cd1fd0a4f28419497f9722a3daafe3b4186f6b6457e060405160405180910390a3806000806101000a81548173ffffffffffffffffffffffffffffffffffffffff021916908373ffffffffffffffffffffffffffffffffffffffff1602179055505056fe4f776e61626c653a206e6577206f776e657220697320746865207a65726f2061646472657373a165627a7a723058209330fb9db760ea95e4614e4eee9e02af6f015748805e28e4a633055a90486a120029",
  "source": "pragma solidity ^0.5.8;\n\nimport \"./Ownable.sol\";\n\ncontract Suggestion is Ownable{\n    string public suggestion;\n    int256 public voteCount;\n\n    mapping(address => bool) voted;\n\n    constructor(string memory _suggestion) public {\n        suggestion = _suggestion;\n    }\n\n    modifier onlyOnce() {\n        if(!hasVoted()){\n            _;\n        }\n    }\n\n    function hasVoted() private view returns (bool){\n        return voted[msg.sender];\n    }\n\n    function upVote() public payable onlyOnce {\n        voted[msg.sender] = true;\n        voteCount++;\n    }\n\n    function downVote() public onlyOnce {\n        voted[msg.sender] = true;\n        voteCount--;\n    }\n\n    function donationValue() public view returns(uint256) {\n        return address(this).balance;\n    }\n\n    function close() public onlyOwner {\n        selfdestruct(msg.sender);\n    }\n}",
  "sourcePath": "/Users/darrenmatthews/Documents/SimpleApp/contracts/Suggestion.sol",
  "compiler": {
    "name": "solc",
    "version": "0.5.8+commit.23d335f2.Emscripten.clang"
  },
  "schemaVersion": "3.0.11",
  "updatedAt": "2019-07-20T16:43:46.363Z",
  "devdoc": {
    "methods": {
      "isOwner()": {
        "details": "Returns true if the caller is the current owner."
      },
      "owner()": {
        "details": "Returns the address of the current owner."
      },
      "renounceOwnership()": {
        "details": "Leaves the contract without owner. It will not be possible to call `onlyOwner` functions anymore. Can only be called by the current owner.     * NOTE: Renouncing ownership will leave the contract without an owner, thereby removing any functionality that is only available to the owner."
      },
      "transferOwnership(address)": {
        "details": "Transfers ownership of the contract to a new account (`newOwner`). Can only be called by the current owner."
      }
    }
  },
  "userdoc": {
    "methods": {}
  }
}